:020000040800F2
:1000000038110020C5010008FB140008291400085D
:10001000F914000897070008A51800080000000060
:1000200000000000000000000000000001150008B2
:100030009907000800000000FD14000805150008DD
:10004000DF010008DF010008DF010008DF01000810
:10005000DF010008FF140008DF010008DF010008CD
:10006000DF010008DF010008DF010008DF010008F0
:10007000DF010008DF010008DF010008DF010008E0
:10008000DF010008DF010008DF010008DF010008D0
:10009000DF010008DF010008DF010008DF010008C0
:1000A000DF010008DF010008DF010008DF010008B0
:1000B000DF010008DF010008DF010008DF010008A0
:1000C000DF010008DF010008DF010008DF01000890
:1000D000DF010008DF010008DF010008DF01000880
:1000E000DF010008DF010008DF010008DF01000870
:1000F000DF010008DF010008DF010008DF01000860
:10010000DF010008DF010008DF010008DF0100084F
:10011000DF010008DF010008DF010008DF0100083F
:10012000DF010008DF010008DF010008DF0100082F
:10013000DF010008DF010008DF010008DF0100081F
:10014000DF010008DF010008DF010008DF0100080F
:10015000DF010008DF010008DF0100088518000842
:10016000DF010008DF010008DF010008DF010008EF
:10017000DF010008DF010008DF01000800000000C7
:10018000DF010008DF010008DF010008DF010008CF
:10019000DF010008DF010008DF010008DF010008BF
:1001A0000000000000000000DF010008DFF810D0B0
:1001B00000F070FA004800473D240008AFF30080CB
:1001C000381100200648804706480047FEE7FEE752
:1001D000FEE7FEE7FEE7FEE7FEE7FEE7FEE7FEE7F7
:1001E000B5150008AD0100082DE9F05F05460020B7
:1001F00092469B4688460646814640241BE0284698
:1002000041464746224600F07CF853465A46C01AFB
:10021000914110D311461846224600F063F82D1A7A
:1002200067EB01084F4622460120002100F05AF8F2
:1002300017EB00094E41201EA4F10104DFDC484603
:1002400031462A464346BDE8F09F40EA01039B073A
:1002500003D009E008C9121F08C0042AFAD203E03B
:1002600011F8013B00F8013B521EF9D27047D2B29F
:1002700001E000F8012B491EFBD270470022F6E78F
:1002800010B513460A4604461946FFF7F0FF20460C
:1002900010BD00F0004230F000400AD0C10D01F561
:1002A0006071C0F3160042EA0151C20840071143D1
:1002B000704700200146704730B50B4601460020CC
:1002C0002022012409E021FA02F59D4205D303FA18
:1002D00002F5491B04FA02F52844151EA2F1010299
:1002E000F1DC30BD202A04DB203A00FA02F10020C4
:1002F00070479140C2F1200320FA03F31943904064
:100300007047202A04DB203A21FA02F000217047CE
:1003100021FA02F3D040C2F120029140084319466D
:1003200070472DE9FE4F804681EA0300C00F0C465E
:10033000009021F0004123F00045B8EB0200A941F4
:1003400005D24046214690461C460B46024623F005
:100350000040104347D0270DC7F30A00C3F30A51EA
:100360000290401A019040286BDAC3F3130040F466
:10037000801B0098924620B10023D2EB030A63EB66
:100380000B0B01985946C0F140025046FFF7AAFFF7
:1003900006460D4650465946019A00F08DF910EB7D
:1003A00008006141002487EA115284EAE7731A4386
:1003B00040D0009A62B3019A012A4FEA075215DC35
:1003C000001B61EB02014FF0004202EA0752CDE947
:1003D0000042001C41F5801132462B4600F08DF999
:1003E00003B0BDE8F08F40462146F9E7001B61EB02
:1003F0000201001C41F5801300185B412018A2F592
:10040000001747EB030140EAD570B6196D4111E0C2
:100410006D084FEA360645EAC0754FEA0752001BE1
:1004200061EB0201001C41F5801149084FEA3000E0
:100430000019514132462B4603B0BDE8F04F00F0A1
:100440004DB90098012240000023D0EB020263EB7B
:10045000E073009821464FEAE074B8EB000061EBCE
:100460000401E9E783F000435BE781F0004158E7CE
:100470002DE9FE4F81EA030404F0004421F000411D
:1004800000944FF0000B23F0004350EA01045ED0CB
:1004900052EA03045BD0C3F30A54C1F30A552C4457
:1004A000A4F2F3340194A0FB0254C1F3130141F40C
:1004B0008011C3F3130343F4801301FB024400FBD8
:1004C000034E840A970A44EA815447EA8357A4FBFF
:1004D000076802958D0A05FB07854FEA932C04FBFC
:1004E0000C542705029D4FEA065847EA1637B5EB2C
:1004F00008056EEB070C870E920E47EA811742EA59
:100500008312A7FB0201B6EB0B0164EB00042B0D79
:1005100043EA0C335E1844EB1C50DA465146E7FBC5
:100520000201C5F313044FEA0B3343EA14534FEAB5
:100530000432019C43EA0603A4F10C040294009CDB
:10054000CDE900B400F0D9F803B0BDE8F08F002089
:100550000146F9E72DE9F04D81EA030404F0004B70
:1005600021F0004514464FF0000A23F0004150EA04
:10057000050220D054EA01021DD0C5F30A570246F5
:10058000C5F31303C1F31300C1F30A5640F48015F9
:1005900043F48013A7EB0608101BD64608F2FD387B
:1005A00073EB050002D308F1010801E092185B41EA
:1005B000B8F1000F03DA00200146BDE8F08D0020FD
:1005C0004FF48011064684460EE0171B73EB0507B7
:1005D00005D3121B63EB050306434CEA010C4908E3
:1005E0004FEA300092185B4150EA0107EDD152EA20
:1005F000030012D082EA040083EA0501084305D013
:10060000101BAB4106D20122002306E000224FF06E
:10061000004302E06FF0010253101AEB06004CEBAE
:10062000085110EB0A0041EB0B01BDE8F04D00F062
:1006300055B8C1F30A52C1F3130140F2FF3341F43C
:1006400080119A4202DA00200146704740F233439B
:100650009A42A2F2334202DC5242FFF752BEFFF747
:1006600041BE000030B5041E71F1000404DB4FF000
:100670000044404264EB0101141E73F1000405DBE9
:100680001C464FF00043524263EB0403994208BFFB
:10069000904230BD064C074D06E0E06840F0010393
:1006A00094E8070098471034AC42F6D3FFF782FD78
:1006B0000028000820280008202A06DBCB17203A53
:1006C00041FA02F043EAE07306E041FA02F3D04057
:1006D000C2F12002914008431946704710B5141E1C
:1006E00073F1000408DA401C41F1000192185B41EB
:1006F0001A4301D120F0010010BD2DE9F04D9246C2
:100700009B4611B1B1FA81F202E0B0FA80F22032D8
:100710009046FFF7E7FD04460F4640EA0A0041EA2B
:100720000B0153465A46084313D0114653EA0100C1
:1007300019D0C8F140025046FFF7E3FD05460E46CA
:10074000504659464246FFF7CDFD084305D00120EB
:1007500004E020463946BDE8F08D0020054346EA16
:10076000E0762C4337430A986305E40AA0EB0800BF
:100770000022FD0A44EA47540A3002D5002001460F
:10078000E9E7010510196941DDE9084500196941EA
:10079000BDE8F04DA2E7FEE77047704790F83510CE
:1007A000022903D08021416501207047052180F88E
:1007B00035100068016821F00101016000207047D8
:1007C0002DE9F84F00224FF0010803254FF00F0EDE
:1007D0000B6808FA02F42340A3426ED14E68012E42
:1007E00005D0022E03D0112E01D0122E12D1866810
:1007F0004FEA420C05FA0CF7BE43CF6807FA0CF734
:10080000374387604668A6430C79C4F300149440CC
:1008100034434460C668570005FA07FC8C6826EA32
:100820000C06BC403443C4604C68022C01D0122C2E
:1008300013D1D40800EB8404A346D4F820905407C5
:100840004FEAD46A0EFA0AF629EA06090E6906FA90
:100850000AF646EA0906CBF8206004680E7924EA15
:100860000C0406F00306BE40264306604C68E40014
:100870006FD53B4C266846F480462660246822F0FB
:10088000030604F480440094364C3444A446D4F85F
:1008900008489607360F0EFA06F7BC43324FB842A7
:1008A00001D100272EE0314FB84201D1012729E0C4
:1008B0002F4FB84202D1022724E04AE02D4FB84220
:1008C00001D103271EE02C4FB84201D1042719E0C3
:1008D0002A4FB84201D1052714E0294FB84201D16F
:1008E00006270FE0274FB84201D107270AE0264F1D
:1008F000B84201D1082705E0244FB84201D10927A9
:1009000000E00A27B7402743CCF80878204E346827
:100910004F689C43FF0300D51C4334601C4E361DBA
:1009200034684F689C43BF0300D51C433460184EA5
:10093000083634684F689C43FF0200D51C4334607E
:10094000134E0C3634684F689C43BF0200D51C43DD
:100950003460521C102AFFF43BAFBDE8F88F000052
:1009600044380240003001400000024000040240D0
:1009700000080240000C0240001002400014024037
:1009800000180240001C02400020024000240240E7
:10099000003C014001488068704700002C000020A6
:1009A0000248816802781144816070472C00002061
:1009B0000B4810B5016841F400710160016841F411
:1009C00080610160016841F480710160032000F0E2
:1009D00077F8002000F006F800F024F8002010BDA1
:1009E000003C024070B50D4D04464FF47A712878F2
:1009F000B1FBF0F00A490968B1FBF0F000F00CFB24
:100A000048B9102C07D200222146501E00F038F8B9
:100A100000206C6070BD012070BD00002C00002023
:100A2000380000200E4808B5016841F4804101609B
:100A3000006800F4804000900948001F016841F000
:100A4000805101600068002200F080500090114643
:100A5000052000F015F8BDE80840052000F002B8B8
:100A600044380240002809DB00F01F0201219140B8
:100A70004009800000F1E020C0F80011704700003C
:100A8000F0B40E4B1B680C46C3F30223C3F10705F9
:100A9000042D00D90425191D072901D2002300E0E7
:100AA000DB1E012606FA05F1491E214099409E40B1
:100AB000761E16403143F0BC00F006BF0CED00E09E
:100AC000064900F0070208684FF6FF03184040EAA5
:100AD0000220034A10430860704700000CED00E05C
:100AE0000000FA052DE9F0470E46050065D0DFF855
:100AF0001481D8F80000F7B200F00F00B04207D21E
:100B000088F80070D8F8000000F00F00B04254D10F
:100B100028683D4C810712D5400703D5206840F472
:100B2000E05020602878000703D5206840F460403A
:100B300020602068A96820F0F00008432060287831
:100B4000C0072DD0304968680839012812D0022822
:100B500013D0032811D00968890700292DDA2168EC
:100B600021F0030101432160FFF714FF814641F2A8
:100B7000883A0EE009688903EFE709688901ECE724
:100B8000FFF708FFA0EB0901514502D90320BDE89A
:100B9000F0872068696800F00C00B0EB810FEFD19E
:100BA000D8F80010404601F00F01B14207D9077094
:100BB000006800F00F00B04201D00120E7E728787C
:100BC000400705D52068E96820F4E050084320601C
:100BD0002878000706D52068296920F4604040EA9B
:100BE000C100206000F038F82168084AC1F3031101
:100BF000515CC8400649086006480068FFF7F2FEED
:100C00000020C4E7003C024008380240E627000804
:100C100038000020300000200448054900680968B9
:100C2000044AC1F38221515CC8407047380000205B
:100C300008380240F627000804480549006809689A
:100C4000044AC1F34231515CC8407047380000206B
:100C500008380240F6270008154810B5006810F063
:100C60000C02144813D01449042A0FD0082A0ED1BC
:100C70000F4C241F2268236802F03F025B0207D555
:100C80002068C0F38810A0FB010106E0084610BDF3
:100C90002168C1F38811A1FB00010023FFF7A4FA2A
:100CA0002168C1F30141491C4900B0FBF1F010BDBE
:100CB000083802400024F400001BB7002DE9F84F6B
:100CC00004006ED02078DFF83C93C007A9F104053A
:100CD0004AD009F104000168C1F38101012908D05B
:100CE0000068C0F3810002280AD1D9F80000400250
:100CF00006D52868800337D560680028E1D033E046
:100D00006068B0F5803F10D0B0F5A02F286810D0F3
:100D100020F480302860286820F4802028606068F3
:100D2000A8B1FFF737FE06460DE0286840F4803092
:100D3000F4E740F480202860F7E700BFFFF72AFEC1
:100D4000801B642873D828688003F7D50CE0FFF770
:100D500021FE064605E000BFFFF71CFE801B64284D
:100D6000F0D828688003F7D42078DFF89C828007C9
:100D70004FF0000A3ED5A348001D016811F00C0F8A
:100D800008D00068C0F3810002280BD1D9F8000018
:100D9000400207D42868800716D5E068012800D1F2
:100DA00012E02BE1E068B8B10120C8F80000FFF7BD
:100DB000F1FD064605E000BFFFF7ECFD801B0228B1
:100DC000C0D828688007F7D52868216920F0F80086
:100DD00040EAC10028600DE0C8F800A0FFF7DAFD86
:100DE000064604E0FFF7D6FD801B02281FD82868BE
:100DF0008007F7D42078000722D5824E83486169A6
:100E0000703671B101210160FFF7C4FD074604E0AF
:100E1000FFF7C0FDC01B022809D830688007F7D54E
:100E20000EE0C0F800A0FFF7B5FD074605E082E040
:100E3000FFF7B0FDC01B02287DD830688007F7D4CB
:100E40002078400768D5DFF8BCB100270BF13C0BD8
:100E5000DBF80000C0000BD4DBF8001041F080513B
:100E6000CBF80010DBF80000012700F08050009064
:100E7000674E3068C00510D4306840F48070306030
:100E8000FFF788FD009005E0FFF784FD0099401A08
:100E9000022850D83068C005F6D55A4EA0686C3686
:100EA00001280FD00528306810D020F001003060F4
:100EB000306820F004003060A068B8B1FFF76AFD28
:100EC00000900FE0306840F00100F4E740F00400CB
:100ED0003060F7E7FFF75EFD0099411A41F2883074
:100EE000814266D830688007F4D50EE0FFF752FDE6
:100EF000009007E0FFF74EFD0099411A41F288305B
:100F0000814256D830688007F4D42FB1DBF8001046
:100F100021F08051CBF80010A069C8B33949091DF0
:100F20000968C1F3810102294AD00228504607D03E
:100F3000C8F8600000E03CE0FFF72CFD04463BE011
:100F40004746C8F86000FFF725FD064605E000BFEC
:100F5000FFF720FD801B02282BD828688001F7D4DA
:100F6000D4E907010843A16A2A4A490802EB014172
:100F7000626A41EA8211084394F82C1040EA016148
:100F8000C9F8001001203866FFF704FD044606E0AA
:100F900036E000BFFFF7FEFC001B022809D82868D6
:100FA0008001F7D52CE000BFFFF7F4FC001B0228FE
:100FB00002D90320BDE8F88F28688001F4D41FE02F
:100FC0000128F7D0D9F80000E26900F480019142CD
:100FD00014D1226A00F03F0191420FD147F6C0714F
:100FE000626A0140914209D1A26A00F44031914203
:100FF00004D1E16A00F07060884201D00120D9E795
:101000000020D7E70438024000004742800E4742E4
:10101000007000400000FFFF10B5401EB0F1807F5F
:1010200001D3012010BD4FF0E02460610F21601753
:1010300000F04AFC0020A06107202061002010BDC4
:101040007047000070B5026804461068D1685369A3
:1010500010F00F0F52D003F0010501F490762E43EB
:101060005FD0C20705D0CA0503D5E26B42F001028A
:10107000E263420705D5DA0703D0E26B42F00202D1
:10108000E263820705D5DA0703D0E26B42F004027F
:10109000E263020707D501F020022A4303D0E26B86
:1010A00042F00802E263E26B002A33D0800604D5E6
:1010B000880602D5204600F0A1FA20684069E16B5D
:1010C000C0F38010090700D428B3204600F088FA46
:1010D0002068416949061AD5416921F04001416102
:1010E000606BA0B11B490165606BFFF757FB0028DF
:1010F00010D0606B016DBDE870400847830610D5C5
:101100008B060ED52046BDE8704000F077BA204629
:10111000FFF796FF70BD2046FFF792FF0020E063C7
:1011200070BD030606D50B0604D52046BDE8704009
:1011300000F044BB4006F3D54806F1D5D1682046FF
:1011400021F04001D160202184F8391000F06BF9C2
:1011500070BD0000D115000870B5040004D094F8EB
:101160003900002510B106E0012070BD84F8385028
:10117000204600F023F8242084F839002068C16854
:1011800021F40051C160204600F084FA2068016912
:1011900021F4904101612068416921F02A014161F7
:1011A0002068C16841F40051C160E563202084F8E3
:1011B000390084F83A00002070BD000070B586B098
:1011C000044614216846FFF759F8274E2268002587
:1011D0002648032102230824B2421DD1234A10329B
:1011E000156845F000451560126802F0004205924E
:1011F000026842F010020260006802AA00F01000CB
:101200000590CDE90013012082E8130069461848D3
:10121000FFF7D6FA06B070BD164EB242FAD1134AA5
:101220001432166846F020061660126802F020029A
:101230000592026842F040020260006800F040003F
:101240000590CDE903144FF484408DE829006946E8
:101250000948FFF7B5FA002211464720FFF710FCB6
:101260004720FFF7FFFBD5E7007C00403038024005
:1012700000100240001401400018024090F83A307B
:10128000202B22D1F9B1F2B190F83830012B1CD0CB
:1012900081628285C2850021C163222280F83A20C2
:1012A00080F838100168CA6842F48072CA60016828
:1012B0004A6942F001024A610068C16841F02001B8
:1012C000C160002070470120704702207047000075
:1012D00070B50068194988422FD1001D0068184C6C
:1012E000C0B2207001F0F4F96078002825D0154DC7
:1012F000002666702878622808D0134800F060FF46
:10130000BDE8704011490A2001F04EBA697810A07A
:1013100000F0CAFA66600CE000EB401005EB4000FC
:10132000C01C00F04DFF10A001F040FA6068401CA6
:101330006060A97860688142EED870BD00140140F9
:101340001C000020900800204C0800203C000020D9
:10135000202020202020202047572049443A2020C8
:10136000252D38640A000000000000002DE9F84334
:10137000044690F839001F4616460D46202850D1E5
:10138000B5B1AEB194F8380001284AD0012084F8F4
:1013900038004FF00008C4F83C80212084F8390060
:1013A000FFF7F8FAA6848146E68484F8388026E0C0
:1013B0000120BDE8F883E08C401EE084A0684B4625
:1013C000B0F5805F4FF000024FF08001204600979B
:1013D00003D000F024FAE8B90DE000F020FAC8B913
:1013E00028882168C0F308004860206908B16D1C96
:1013F00005E0AD1C03E0216815F8010B4860E08CA6
:101400000028D8D14B46002240212046009700F00A
:1014100006FA08B10320CCE7202084F83900002028
:10142000C7E70220C5E77047FEE7000000B587B0B8
:1014300014216846FEF722FF11480021026842F09D
:1014400010020260026802F010020592026842F087
:1014500040020260026802F040020592026842F017
:10146000800202600068029100F080000590022076
:10147000CDE9000169460348FFF7A2F907B000BDB6
:1014800030380240001802400C4810B50A4901608B
:101490004FF4E1314160002181600C22C160C0E95C
:1014A00004128161C161FFF757FE002803D0BDE837
:1014B0001040FFF772B910BD007C0040B40C002052
:1014C0000C4810B50A4901604FF4E1314160002138
:1014D00081600C22C160C0E904128161C161FFF723
:1014E0003BFE002803D0BDE81040FFF756B910BD01
:1014F00000140140F40C0020FEE77047704770476D
:101500007047000008488168642907D10749002214
:1015100082600B68C3600A60012141708168491CC8
:101520008160FFF73DBA00001C0000201800002079
:1015300030B593B030216846FEF7A0FE14210CA808
:10154000FEF79CFE19480025016841F080510160BA
:10155000006800F0805011901548016841F4404146
:1015600001600068022400F44040119001200090C6
:10157000000401908001CDE9064006200890A820D3
:10158000CDE9090404200B906846FFF797FB0CA9EE
:101590000F2081E831004FF4A0500F90E00210902E
:1015A00005210CA8FFF79EFA13B030BD4038024069
:1015B000007000400548016841F470010160034972
:1015C0004FF00060803908607047000088ED00E04F
:1015D00010B5806B0021C185C184FFF731FD10BDBE
:1015E0000168CA6822F49072CA6001684A6922F0F0
:1015F00001024A61202180F83A10704710B590F836
:101600003A10222901D0022010BD8168B1F5805F17
:1016100011D00169002901681FD0496801F07F03DA
:10162000816A4A1C82620B70C18D491E0904090C33
:10163000C18518D02BE00269816A002A02685268CD
:1016400005D0D2B20A80816A491C8162ECE7C2F3FC
:1016500008020A80816A891CF7E74A68816A4B1C84
:1016600083620A70E0E70168CA6822F02002CA605B
:101670000168CA6822F48072CA6001684A6922F06F
:1016800001024A61202180F83A10FFF721FE002074
:1016900010BD00002DE9F041044600680169E268D0
:1016A00021F44051114301612169A068E2690843B6
:1016B0006169114308432168CA6849F20C639A437F
:1016C0000243CA6020684169A26921F44071114354
:1016D0004161E069192764253226B0F5004F354A8B
:1016E000354920684FF0000806D0884201D090426A
:1016F00036D1FFF7A1FA35E0884201D0904202D1FD
:10170000FFF79AFA01E0FFF787FA61684A18A0FB31
:10171000070148EB0803FEF767FD0146B0FBF5F053
:101720000201B1FBF5F06FF01803584301EB8000A4
:1017300006EBC000B0FBF5F000F0F80002EB400251
:10174000B1FBF5F0584301EB800006EBC000B0FBA5
:10175000F5F000F00700216810448860BDE8F081D2
:10176000FFF75AFA61688B0F8A00A0FB0701FEF7AA
:101770003BFD0146B0FBF5F06FF01802504301EB62
:10178000800006EB0010B0FBF5F000F0F002B1FBBA
:10179000F5F002EB0012B1FBF5F06FF018035843BF
:1017A00001EB800006EB0010B0FBF5F000F00F003D
:1017B000D1E70000001401400010014090F83910FA
:1017C000212901D0022070478168B1F5805F016A4C
:1017D0000BD04A1C0262026809785160C18C491E14
:1017E0000904090CC1840ED017E009880268C1F30E
:1017F0000801516001690029016A02D0491C016297
:10180000ECE7891CFBE70168CA6822F08002CA6025
:101810000068C16841F04001C160002070472DE9B7
:10182000F041984617460E460446069D1DE0681C8A
:101830001BD02DB1FFF7AEF8A0EB0800A84214D9D9
:101840002068C16821F4D071C1602068416921F02D
:1018500001014161202084F8390084F83A00002019
:1018600084F838000320BDE8F0812068006836EA7B
:10187000000004D00020B842D9D00020F3E70120B6
:10188000F9E7000010B50548FFF7DCFBBDE81040A4
:10189000012203490148FFF7F1BC0000F40C0020CD
:1018A0001C000020FEE700000FB4054B10B503A993
:1018B000044A029800F0EAF810BC5DF814FB00003E
:1018C000092400083C0000200907090E002804DB59
:1018D00000F1E02080F80014704700F00F0000F1E4
:1018E000E02080F8141D704702E008C8121F08C1EC
:1018F000002AFAD170477047002001E001C1121F91
:10190000002AFBD1704700002DE9FF5F82B0002163
:10191000DDE90430020DDDF840B0034318D044F691
:101920001050A2F2FF3242431514119801281FD023
:10193000A5EB0B00401C5FEA000A4FF000064E4F7B
:10194000DFF83891B046504615D5CAF1000413E0CF
:10195000119801244AA3012801D16FEA0B010298D2
:10196000119AC0E90031C0E9024206B0BDE8F09F1B
:10197000CBF10000DFE704460021404A491842EB62
:101980000450CDE9001012E0E00707D032463B4694
:1019900040464946FEF76CFD8046894632463B4646
:1019A00010461946FEF764FD06460F466410002CEB
:1019B000EAD1DDE90401DDE90023BAF1000F06DA1E
:1019C000FEF756FD42464B46FEF752FD05E0FEF798
:1019D000C1FD42464B46FEF7BDFD04460E460022C1
:1019E000284BFEF73FFE03D84FF0FF30014607E0DB
:1019F0000022254B20463146FEF793FCFEF719FEE8
:101A0000102409E0002C0ADB0A220023FEF7ECFB7D
:101A1000039B30321A55641E50EA0102F2D1641C55
:101A2000039AC4F111031444119A012A03D001222C
:101A300008430DD10AE0084304D000204FF0110BF9
:101A4000119072E7A3EB0B056D1E0DE05B4504DD05
:101A50004FF0000205F1010504E003DA4FF0000247
:101A6000A5F10105002AECD002981199C0E90231D4
:101A7000C0E9004579E70000000014400000F03F95
:101A8000300000000000F0430000E03F2DE9FF4F70
:101A900095B09A46884606460025EEE1252877D17E
:101AA00000242746F94A0121039400E0044316F874
:101AB000013F203B01FA03F01042F7D130782A2889
:101AC00011D06FF02F033078A0F13002092A16D818
:101AD000039A44F0020402EB820203EB4202104438
:101AE000761C0390EFE758F8042B0392002A03DAE0
:101AF000504244F40054039044F00204761C3078C1
:101B00002E2816D116F8010F44F004042A280DD00F
:101B10006FF02F023078A0F13003092B09D807EBC2
:101B2000870302EB4303C718761CF3E758F8047BDE
:101B3000761C30786C280FD006DC4C2817D068282B
:101B40000DD06A2814D104E0742810D07A280FD15F
:101B50000DE044F400140AE044F4801401E044F47D
:101B600040147278824202D104F58014761C761CEF
:101B7000307866280BD013DC582877D009DC002891
:101B800075D04528F6D04628F4D047281AD193E1DD
:101B900018E0632835D0642879D0652812D18BE10C
:101BA000702873D008DC6728F1D069286FD06E28C0
:101BB0000DD06F2806D1ACE073282CD0752874D0D6
:101BC000782853D05246179990476D1C54E1C4F3BE
:101BD0000250022809D003280DD0D8F8001004289C
:101BE0000DD00D6008F1040846E1D8F80010EA179E
:101BF000C1E90052F6E7D8F800100D80F2E70D7049
:101C0000F0E718F8041B8DF8001000208DF8010093
:101C1000EB46012003E058F804BB4FF0FF306107AA
:101C20004FF0000102D40DE009F101018946B942EB
:101C30000FDA8145F8DB1BF809100029F4D108E020
:101C400009F1010189468142FADB1BF809100029DC
:101C5000F6D103985346A0EB090721463846179A58
:101C600000F080FA284400EB090507E044E008E1B1
:101C70000DE01BF8010B524617999047B9F1010985
:101C8000F7D2534621463846179AF2E039E00A2146
:101C9000C4F302524FF0000B0091022A06D058F80C
:101CA000040BC117032A09D00AE023E008F107005A
:101CB00020F00702F2E80201904605E000B2C117E9
:101CC000042A01D140B2C117002906DA0A460021D0
:101CD000404261EB02012D2202E0220504D52B22B5
:101CE0008DF80420012203E0E20701D02022F7E76B
:101CF000914657E00A2100E010214FF0000B0091BF
:101D00000BE010214FF0000B44F004040827009171
:101D100003E008204FF0000B0090C4F30252022AA7
:101D200005D058F8040B0021032A08D008E008F178
:101D3000070020F00702F2E80201904603E080B2BB
:101D4000042A00D1C0B24FF0000922072AD5327808
:101D5000702A07D0DDF800C08CF0100C5CEA0B0C88
:101D600005D00EE040228DF80420012208E050EA60
:101D7000010306D030238DF804308DF805200222AF
:101D80009146009B83F0080353EA0B030AD150EA03
:101D9000010201D1620705D530228DF804204FF0F1
:101DA00001097F1E3278582A04D039A20C920CAA5D
:101DB00002920BE03BA2F9E75B46009AFEF714FAA9
:101DC0000C9B9B5C029A521E0292137050EA010215
:101DD000F2D1029804A9081A00F1200B600702D57D
:101DE00024F4803400E001275F4502DDA7EB0B00FF
:101DF00000E0002000EB0B01009003984944401ADA
:101E00000390E00306D453462146179A039800F046
:101E1000A9F90544002706E001A85246C05D1799BC
:101E200090476D1C7F1C4F45F6DBE0030CD55346F5
:101E30002146179A039800F095F9054404E03020F4
:101E40005246179990476D1C0099481E0090002932
:101E5000F5DC08E00298029952460078491C02918C
:101E6000179990476D1CBBF10001ABF1010BF1DC40
:101E70005BE100F065F90544761C307800287FF4BA
:101E80000DAE19B02846BDE8F08F0000092801000A
:101E900030313233343536373839616263646566E0
:101EA00000000000303132333435363738394142A2
:101EB0004344454600000000600700D4062708F1AF
:101EC000070020F00700F0E80223804603F0004CF2
:101ED0005FEA0C0001D097A009E0200501D596A08B
:101EE00005E0E00701D095A001E0AFF24C001390AF
:101EF000307823F0004365280CD006DC452809D053
:101F000046281DD047287FD13BE0662818D0672897
:101F10007AD136E00021112F01DB112000E0781C7E
:101F2000CDE9000104A90CA8FFF7EEFCDDE90D01E5
:101F30000C9A4FF0000B07F10109109200914EE04E
:101F40004FF000400097CDE9011004A90CA8FFF75D
:101F5000DBFCDDE90D020C9B0F994FF0000B914665
:101F60001093009211B9791C00EB0109B7EB09003D
:101F700003D4C0F1FF3B07F10109A9EB0700019071
:101F800042E0012F00DA01270021112F01DD11208D
:101F900000E03846CDE9000104A90CA8FFF7B4FC25
:101FA000DDE90D010C9A00914FF0000BB94610923B
:101FB00021070FD4009A4A4503DA914601E0A9F1BE
:101FC0000109B9F1010F05DD109AA9F10101515C78
:101FD0003029F4D0B84202DA10F1040F03DA0121FB
:101FE000CDE9011010E0002803DC8344A9EB0001D7
:101FF00002E0411C494500DD8946A0EB0B00401C76
:1020000001904FF000400290200705D40198484508
:1020100002DB4FF0FF30019000208DF84B0002985A
:102020000DF14B07B0F1004F25D002200C902B2072
:102030000D90029800280CDA404202902D200D905D
:1020400007E00A210298FEF737F93031029007F8CD
:10205000011D0C99481E0C900029F2DC0298002802
:10206000EFD1791E0D980870307800F0200040F014
:10207000450007F8020D11A8C01BC01D029013985F
:10208000007800B1012000EB0901019801EBE0713B
:10209000029801440398401A401E0390E00306D4BE
:1020A00053462146179A039800F05CF805441398AC
:1020B000007818B15246179990476D1CE00323D55C
:1020C00053462146179A039800F04CF805441BE04C
:1020D000BBF1000F07DB0098584504DD10981799F5
:1020E00010F80B0001E017993020524690470198F4
:1020F0000BF1010B401E05F10105019004D12E20CA
:102100005246179990476D1CB9F10001A9F10109D8
:10211000DEDC05E017F8010B5246179990476D1C5D
:102120000299481E02900029F4DC53462146179A72
:1021300003989EE62D0000002B0000002000000008
:102140002DE9F041044600251E461746880404D4B4
:1021500005E039462020B0476D1C641EF9D528469D
:10216000BDE8F0812DE9F041044600251E46904669
:10217000C80301D5302700E02027880404D505E0F6
:1021800041463846B0476D1C641EF9D52846BDE867
:10219000F081F0B50388002541F221070CE04C5D89
:1021A000002683EA04235C001B0400D57C40761CD7
:1021B0002346082EF7D36D1C9542F0D30380F0BD63
:1021C0002DE9F0470446534886B0C16852A0FFF796
:1021D0006BFB574D2878C00703D0617855A0FFF7F7
:1021E00063FB2878A946800718D5D4F80A00A41CF8
:1021F000FEF74FF8074688466068FEF74AF805463E
:102200000E4654F80209FEF744F88DE8E00141EC6F
:10221000100B4EA053EC102BFFF746FB99F8000073
:10222000400718D5D4F816000E34FEF732F80746EA
:1022300088466068FEF72DF805460E4654F80E09EC
:10224000FEF727F88DE8E00141EC100B48A053ECB5
:10225000102BFFF729FB99F80000000718D5D4F8D8
:1022600022001A34FEF715F8074688466068FEF724
:1022700010F805460E4654F81A09FEF70AF88DE8DC
:10228000E00141EC100B43A053EC102BFFF70CFBCB
:1022900099F80000C00618D5D4F82E002634FDF7B2
:1022A000F8FF074688466068FDF7F3FF05460E46CF
:1022B00054F82609FDF7EDFF8DE8E00141EC100B25
:1022C0003DA053EC102BFFF7EFFA99F800008006C1
:1022D0001CD5D4F83E003234FDF7DBFF81468A4638
:1022E000A068FDF7D6FF074688466068FDF7D1FF76
:1022F00005460E462068FDF7CCFF8DE8E00741EC6F
:10230000100B36A053EC102BFFF7CEFA06B0BDE849
:10231000F08700001C0000202020204672616D65BF
:1023200020526174653A20253464487A0D0A000011
:102330001400002020202020446576696365204930
:10234000443A2020252D38640D0A0000202020204A
:102350002020204163632847293A0925382E336617
:102360002025382E33662025382E33660D0A0000CE
:10237000202020677972286465672F73293A092520
:10238000382E32662025382E32662025382E3266C9
:102390000D0A00002020202020206D616728755440
:1023A000293A0925382E32662025382E3266202516
:1023B000382E32660D0A000020202065756C2852E8
:1023C00020502059293A202025382E3266202538E1
:1023D0002E32662025382E32660D0A007175617422
:1023E000285720582059205A293A202025382E33A2
:1023F000662025382E33662025382E336620253872
:102400002E33660D0A00000008B502238DF8000087
:10241000012269460248FEF7A9FF002008BD00001E
:10242000B40C002010B50349034800F0B1F90020B6
:1024300010BD00006924000840000020FEF7B8FA33
:10244000FFF776F8FEF7F2FFFFF71EF8FFF738F810
:10245000FFF7E8FF012202490248FEF70FFFFEE7FF
:102460001C000020F40C00202DE9F04F4FF0000874
:102470002DED028B83B00646CDF80080CDF80480A8
:10248000051DCDF8088090F80808DFF83492DFF8D1
:1024900034A24446B2EE048A4FF03F0BA52822D165
:1024A0001DE034B9D9F80410491CC9F8041089F8A2
:1024B0000080295DB02952D008DC62297DD09029A6
:1024C00016D091297AD0A02908D11DE0C0295ED06C
:1024D000D02974D0D12973D0F02972D0641CB6F8F9
:1024E0000408A042DDDC03B0BDEC028BBDE8F08F38
:1024F00099F80010734841F0010189F80010443840
:1025000069784170A41CEAE799F80010684641F028
:10251000020189F800102919491C00F059F99DEDB4
:10252000000AB8EEC01A9FED680A6648C1EE000ABC
:10253000443810EE901A40F8021FDDED010AB8EEA3
:10254000E01AC1EE000A10EE901A4160DDED020AB9
:10255000B8EEE01AC1EE000A10EE901A69E099F8A0
:102560000010684641F0040189F800102919491C3F
:1025700000F02EF99DED000A5248F8EEC00A4438EA
:1025800080EE880A10EE101A40F80E1F1CE099F831
:102590000010684641F0080189F800102919491C0B
:1025A00000F016F99DED000A4648F8EEC00A4438DE
:1025B00080EE880A10EE101A04E05DE04DE00DE0B8
:1025C0003AE048E040F81A1F9DED010AF8EEC00A13
:1025D00080EE880A10EE101A416022E099F800108F
:1025E000684641F0100189F800102919491C00F0D3
:1025F000EFF89DED000A3348B8EEC01A9FED330A9C
:102600004438C1EE000A10EE901AC0F82A10DDED31
:10261000010AB8EEE01AC1EE000A10EE901A40F876
:10262000261F9DED020AF8EEC00A80EE880A10EE21
:10263000101AE41D816052E799F80010214841F01A
:10264000200189F80010291910221238491CFDF7C1
:10265000FCFD113443E7641D41E7281989F800B0F7
:102660004178184840224438417005F10C01801C23
:10267000FDF7EBFD4C3432E78AF8001029190027EA
:102680004A788AF8012089788AF80210083411E023
:1026900007EB471289F800B00AEB4200295DC170D0
:1026A00029194A7802714022401D0C31FDF7CDFDF9
:1026B0004C347F1C9AF80210B942BCDDE8E70000F8
:1026C000140000209008002000007A440000C84256
:1026D00070B52E4C0025A21D911F23780969072B88
:1026E00050D2DFE803F004080F141D2028005A28F8
:1026F00049D1012004E081F80808A52843D102202F
:10270000207040E0A1F8040890700320F8E7B1F8C9
:10271000043843EA0023A1F80438D0700420EFE71E
:1027200060800520ECE7628842EA002060800D604E
:10273000A5800620E4E70A680B1D561C0E60D054E5
:102740000868B0F5006F02D32570012070BDB1F8A4
:102750000428904217D391F80808A52813D10B49F3
:102760000422891D881EFFF714FD2169074804C94A
:10277000001DFFF70EFDA0886188884202D1D4E9D0
:10278000031088472570002070BD00000000002065
:1027900070B5044D0446E96040F60C01FDF76EFD8E
:1027A0002C6170BD00000020FFF72EBE10B504465E
:1027B00001E0FFF729FE14F8010B04490028F8D1C5
:1027C000BDE810400A20FFF71FBE00003C000020BB
:1027D000B1F900200260B1F902204260B1F90410A1
:1027E000816000207047000000000000000001022E
:1027F00003040607080900000000010203040000AA
:10280000202800080000002040000000E818000810
:102810006028000840000020F8100000F8180008A8
:102820000000000000005AA50000000000000000A9
:102830000000000000000000000000000000000098
:102840000000000000000000000000000100000087
:1028500010000000000000000024F4000000000050
:04000005080001AD41
:00000001FF
